:020000040000FA
:040000000128EC2FB8
:100C10001630210097000800FE0012001E00FE0B97
:100C20000D2E00342A3021009900980122009601EF
:100C30000800703021009E009B019C0109309D003E
:100C4000080070082000C1007108C200C301C4017F
:100C50000800863136268631863112268631863165
:100C600008268631863119268631080022008C013B
:100C7000083021008C0023008C01083024008C00F7
:100C80002100951722009D01080002340034013430
:100C9000003403340034213400342334003431343C
:100CA0000034013400340034003486312926863182
:100CB0000030F5000030F4000030F3000030F200A6
:100CC0008631E526863121000C151F3020009B005F
:100CD0000C302500930004309100200091109C01FD
:100CE0001C1587317B278631712E01280030FB00CF
:100CF0000030FA000030F9000030F800701C812E3E
:100D0000822E8A2E7408F8077508F93D7608FA3D98
:100D10007708FB3D0130F435F50DF60DF70D890B25
:100D20008B2E0130F336F20CF10CF00C890B922E65
:100D30007308720471047004031D9F2EA02E7E2E72
:100D40007B08F3007A08F2007908F1007808F000D7
:100D5000080020004408F3004308F2004208F100B4
:100D60004108F0004130F700C630F6004E30F50083
:100D70006D30F40086317626863173082000C40079
:100D80007208C3007108C2007008C1003930C10781
:100D90003030C23D0030C33D0030C43D4108A000AA
:100DA0004208A1004308A2004408A3001030A40098
:100DB000A337A20CA10CA00CA40BD82EFF30200549
:100DC000FC007F302105FD00080021000C152300E8
:100DD0000C1524000C11093021009D0075087404C5
:100DE00073047204031DF52EF62E0D2F9D149D180D
:100DF000FA2EFB2EF72E1C08F7001B08F6007608CB
:100E000077040319042F052FF62E76082000C5005D
:100E10007708C600C701C801162F75082000C80052
:100E20007408C7007308C6007208C50021009D0140
:100E300024000C1523000C1121000C112000460881
:100E4000F1004508F0008631212686310800200097
:100E5000AB01A81F2C2F2D2F342FA709A809A70AF3
:100E60000319A80AAB01AB0AA61F372F382F3D2F55
:100E7000A509A609A50A0319A60A25082604031927
:100E8000422F432F6C2FAA01AA0A4F2F0130A535FC
:100E9000A60D890B472F0130A9002908AA07A61F14
:100EA000522F532F462F26082802031D592F25089D
:100EB0002702031C5C2F5D2F612F2508A70226083F
:100EC000A83B0130A636A50C890B622F0130AA027F
:100ED000031D6B2F6C2F532F2B080319702F712FAD
:100EE000762FA709A809A70A0319A80A2808A600A7
:100EF0002708A50008001E302000AF000030B00019
:100F000006302000A5000030A6008631A9268731D2
:100F10007D082000A8007C08A7008731272787319B
:100F200020002608B4002508B3002E083406031D4F
:100F30009B2F2D08330603199E2F9F2FB22F333579
:100F4000353E8600870101088C0021000C110A3013
:100F5000890BA82F000021000C1520003408AE00DA
:100F60003308AD00FF30AF07FF30B03D3008803AA6
:100F7000AC0080302C02031DBF2F01302F0203185C
:100F8000C22FC32F802F21000C1119302000AC007C
:100F90005830890BC92FAC0BC92F000021000C154C
:100FA0002000B101B2016830890BD42F013020003C
:100FB000B1070030B23D3208803AAC0080302C02DC
:100FC000031DE42FFF303102031CE72FE82FD32F3E
:100FD00020008C01630008004530840086308500C5
:100FE0003530860000308700103086310C2687317E
:100FF000C501C601C701C801C901CA012000552E9B
:020000040001F9
:04000E00E43FFF3E8E
:00000001FF
